{
  "contractName": "BGV",
  "abi": [
    {
      "anonymous": false,
      "inputs": [
        {
          "indexed": true,
          "internalType": "address",
          "name": "studentAddress",
          "type": "address"
        },
        {
          "indexed": false,
          "internalType": "string",
          "name": "documentName",
          "type": "string"
        },
        {
          "indexed": false,
          "internalType": "string",
          "name": "hashValue",
          "type": "string"
        },
        {
          "indexed": false,
          "internalType": "enum BGV.AccessType",
          "name": "access",
          "type": "uint8"
        }
      ],
      "name": "DocumentAdded",
      "type": "event"
    },
    {
      "anonymous": false,
      "inputs": [
        {
          "indexed": true,
          "internalType": "address",
          "name": "studentAddress",
          "type": "address"
        },
        {
          "indexed": false,
          "internalType": "string",
          "name": "name",
          "type": "string"
        },
        {
          "indexed": true,
          "internalType": "address",
          "name": "addedBy",
          "type": "address"
        }
      ],
      "name": "StudentAdded",
      "type": "event"
    },
    {
      "anonymous": false,
      "inputs": [
        {
          "indexed": true,
          "internalType": "address",
          "name": "universityAddress",
          "type": "address"
        },
        {
          "indexed": false,
          "internalType": "string",
          "name": "name",
          "type": "string"
        }
      ],
      "name": "UniversityAdded",
      "type": "event"
    },
    {
      "inputs": [
        {
          "internalType": "string",
          "name": "",
          "type": "string"
        }
      ],
      "name": "licenseNumbers",
      "outputs": [
        {
          "internalType": "bool",
          "name": "",
          "type": "bool"
        }
      ],
      "stateMutability": "view",
      "type": "function"
    },
    {
      "inputs": [
        {
          "internalType": "address",
          "name": "",
          "type": "address"
        }
      ],
      "name": "students",
      "outputs": [
        {
          "internalType": "string",
          "name": "name",
          "type": "string"
        },
        {
          "internalType": "address",
          "name": "studentAddress",
          "type": "address"
        },
        {
          "internalType": "address",
          "name": "addedBy",
          "type": "address"
        }
      ],
      "stateMutability": "view",
      "type": "function"
    },
    {
      "inputs": [
        {
          "internalType": "address",
          "name": "",
          "type": "address"
        }
      ],
      "name": "universities",
      "outputs": [
        {
          "internalType": "string",
          "name": "name",
          "type": "string"
        },
        {
          "internalType": "address",
          "name": "universityAddress",
          "type": "address"
        },
        {
          "internalType": "string",
          "name": "licenseNumber",
          "type": "string"
        },
        {
          "internalType": "bool",
          "name": "approvedByGovernment",
          "type": "bool"
        }
      ],
      "stateMutability": "view",
      "type": "function"
    },
    {
      "inputs": [
        {
          "internalType": "address",
          "name": "",
          "type": "address"
        }
      ],
      "name": "universityAddresses",
      "outputs": [
        {
          "internalType": "bool",
          "name": "",
          "type": "bool"
        }
      ],
      "stateMutability": "view",
      "type": "function"
    },
    {
      "inputs": [
        {
          "internalType": "string",
          "name": "_name",
          "type": "string"
        },
        {
          "internalType": "address",
          "name": "_studentAddress",
          "type": "address"
        }
      ],
      "name": "addStudent",
      "outputs": [],
      "stateMutability": "nonpayable",
      "type": "function"
    },
    {
      "inputs": [
        {
          "internalType": "address",
          "name": "_studentAddress",
          "type": "address"
        },
        {
          "internalType": "string",
          "name": "_documentName",
          "type": "string"
        },
        {
          "internalType": "string",
          "name": "_hashValue",
          "type": "string"
        },
        {
          "internalType": "enum BGV.AccessType",
          "name": "_access",
          "type": "uint8"
        }
      ],
      "name": "addDocumentToStudent",
      "outputs": [],
      "stateMutability": "nonpayable",
      "type": "function"
    },
    {
      "inputs": [
        {
          "internalType": "string",
          "name": "_name",
          "type": "string"
        },
        {
          "internalType": "address",
          "name": "_universityAddress",
          "type": "address"
        },
        {
          "internalType": "string",
          "name": "_licenseNumber",
          "type": "string"
        },
        {
          "internalType": "bool",
          "name": "_approvedByGovernment",
          "type": "bool"
        }
      ],
      "name": "addUniversity",
      "outputs": [],
      "stateMutability": "nonpayable",
      "type": "function"
    },
    {
      "inputs": [
        {
          "internalType": "address",
          "name": "_universityAddress",
          "type": "address"
        }
      ],
      "name": "isUniversityLegitimate",
      "outputs": [
        {
          "internalType": "bool",
          "name": "",
          "type": "bool"
        }
      ],
      "stateMutability": "view",
      "type": "function"
    },
    {
      "inputs": [
        {
          "internalType": "address",
          "name": "_studentAddress",
          "type": "address"
        }
      ],
      "name": "getDocumentCount",
      "outputs": [
        {
          "internalType": "uint256",
          "name": "",
          "type": "uint256"
        }
      ],
      "stateMutability": "view",
      "type": "function"
    },
    {
      "inputs": [
        {
          "internalType": "address",
          "name": "_studentAddress",
          "type": "address"
        },
        {
          "internalType": "string",
          "name": "_hashValue",
          "type": "string"
        }
      ],
      "name": "getDocumentDetails",
      "outputs": [
        {
          "internalType": "string",
          "name": "",
          "type": "string"
        },
        {
          "internalType": "string",
          "name": "",
          "type": "string"
        },
        {
          "internalType": "enum BGV.AccessType",
          "name": "",
          "type": "uint8"
        }
      ],
      "stateMutability": "view",
      "type": "function"
    }
  ],
  "bytecode": "0x608060405234801561001057600080fd5b5061204d806100206000396000f3fe608060405234801561001057600080fd5b506004361061009e5760003560e01c80636166333f116100665780636166333f1461018157806380409a991461019d578063a6c807a9146101b9578063d1924ede146101eb578063f09955601461021b5761009e565b806310468c2f146100a357806333dc49a3146100bf5780633b993fe0146100f157806351e674581461012157806353977e5414610151575b600080fd5b6100bd60048036038101906100b891906113ca565b61024e565b005b6100d960048036038101906100d49190611426565b61054d565b6040516100e893929190611578565b60405180910390f35b61010b600480360381019061010691906115bd565b610739565b6040516101189190611603565b60405180910390f35b61013b600480360381019061013691906115bd565b610787565b6040516101489190611639565b60405180910390f35b61016b600480360381019061016691906115bd565b6107a7565b6040516101789190611639565b60405180910390f35b61019b60048036038101906101969190611680565b61085a565b005b6101b760048036038101906101b29190611744565b610b3d565b005b6101d360048036038101906101ce91906115bd565b610f7d565b6040516101e2939291906117f2565b60405180910390f35b61020560048036038101906102009190611830565b61106f565b6040516102129190611639565b60405180910390f35b610235600480360381019061023091906115bd565b6110a5565b6040516102459493929190611879565b60405180910390f35b33600160008273ffffffffffffffffffffffffffffffffffffffff1673ffffffffffffffffffffffffffffffffffffffff16815260200190815260200160002060030160009054906101000a900460ff1680156102f957506000600160008373ffffffffffffffffffffffffffffffffffffffff1673ffffffffffffffffffffffffffffffffffffffff16815260200190815260200160002060020180546102f5906118fb565b9050115b610338576040517f08c379a000000000000000000000000000000000000000000000000000000000815260040161032f9061199e565b60405180910390fd5b600073ffffffffffffffffffffffffffffffffffffffff166000808473ffffffffffffffffffffffffffffffffffffffff1673ffffffffffffffffffffffffffffffffffffffff16815260200190815260200160002060010160009054906101000a900473ffffffffffffffffffffffffffffffffffffffff1673ffffffffffffffffffffffffffffffffffffffff1614610408576040517f08c379a00000000000000000000000000000000000000000000000000000000081526004016103ff90611a0a565b60405180910390fd5b60008060008473ffffffffffffffffffffffffffffffffffffffff1673ffffffffffffffffffffffffffffffffffffffff16815260200190815260200160002090508381600001908161045b9190611bd6565b50828160010160006101000a81548173ffffffffffffffffffffffffffffffffffffffff021916908373ffffffffffffffffffffffffffffffffffffffff160217905550338160020160006101000a81548173ffffffffffffffffffffffffffffffffffffffff021916908373ffffffffffffffffffffffffffffffffffffffff1602179055503373ffffffffffffffffffffffffffffffffffffffff168373ffffffffffffffffffffffffffffffffffffffff167fc902157d0d935238ddf40055643d8152eef5670ddb5272f02869e8dbeaf5dcd68660405161053f9190611ca8565b60405180910390a350505050565b6060806000806000808773ffffffffffffffffffffffffffffffffffffffff1673ffffffffffffffffffffffffffffffffffffffff168152602001908152602001600020600301856040516105a29190611d06565b90815260200160405180910390206040518060600160405290816000820180546105cb906118fb565b80601f01602080910402602001604051908101604052809291908181526020018280546105f7906118fb565b80156106445780601f1061061957610100808354040283529160200191610644565b820191906000526020600020905b81548152906001019060200180831161062757829003601f168201915b5050505050815260200160018201805461065d906118fb565b80601f0160208091040260200160405190810160405280929190818152602001828054610689906118fb565b80156106d65780601f106106ab576101008083540402835291602001916106d6565b820191906000526020600020905b8154815290600101906020018083116106b957829003601f168201915b505050505081526020016002820160009054906101000a900460ff16600281111561070457610703611501565b5b600281111561071657610715611501565b5b815250509050806000015181602001518260400151935093509350509250925092565b60008060008373ffffffffffffffffffffffffffffffffffffffff1673ffffffffffffffffffffffffffffffffffffffff168152602001908152602001600020600401805490509050919050565b60036020528060005260406000206000915054906101000a900460ff1681565b6000600160008373ffffffffffffffffffffffffffffffffffffffff1673ffffffffffffffffffffffffffffffffffffffff16815260200190815260200160002060030160009054906101000a900460ff16801561085357506000600160008473ffffffffffffffffffffffffffffffffffffffff1673ffffffffffffffffffffffffffffffffffffffff168152602001908152602001600020600201805461084f906118fb565b9050115b9050919050565b600360008473ffffffffffffffffffffffffffffffffffffffff1673ffffffffffffffffffffffffffffffffffffffff16815260200190815260200160002060009054906101000a900460ff16156108e7576040517f08c379a00000000000000000000000000000000000000000000000000000000081526004016108de90611d8f565b60405180910390fd5b6002826040516108f79190611d06565b908152602001604051809103902060009054906101000a900460ff1615610953576040517f08c379a000000000000000000000000000000000000000000000000000000000815260040161094a90611dfb565b60405180910390fd5b80610993576040517f08c379a000000000000000000000000000000000000000000000000000000000815260040161098a90611e8d565b60405180910390fd5b6000600160008573ffffffffffffffffffffffffffffffffffffffff1673ffffffffffffffffffffffffffffffffffffffff1681526020019081526020016000209050848160000190816109e79190611bd6565b50838160010160006101000a81548173ffffffffffffffffffffffffffffffffffffffff021916908373ffffffffffffffffffffffffffffffffffffffff16021790555082816002019081610a3c9190611bd6565b50818160030160006101000a81548160ff0219169083151502179055506001600284604051610a6b9190611d06565b908152602001604051809103902060006101000a81548160ff0219169083151502179055506001600360008673ffffffffffffffffffffffffffffffffffffffff1673ffffffffffffffffffffffffffffffffffffffff16815260200190815260200160002060006101000a81548160ff0219169083151502179055508373ffffffffffffffffffffffffffffffffffffffff167fec1e06e5bcd47cc0ab9791be5856f0e0bab5a2be711f3f3fd979d4c694c7c1f986604051610b2e9190611ca8565b60405180910390a25050505050565b600073ffffffffffffffffffffffffffffffffffffffff166000808673ffffffffffffffffffffffffffffffffffffffff1673ffffffffffffffffffffffffffffffffffffffff16815260200190815260200160002060010160009054906101000a900473ffffffffffffffffffffffffffffffffffffffff1673ffffffffffffffffffffffffffffffffffffffff1603610c0d576040517f08c379a0000000000000000000000000000000000000000000000000000000008152600401610c0490611ef9565b60405180910390fd5b6000808573ffffffffffffffffffffffffffffffffffffffff1673ffffffffffffffffffffffffffffffffffffffff16815260200190815260200160002060020160009054906101000a900473ffffffffffffffffffffffffffffffffffffffff1673ffffffffffffffffffffffffffffffffffffffff163373ffffffffffffffffffffffffffffffffffffffff1614610cdc576040517f08c379a0000000000000000000000000000000000000000000000000000000008152600401610cd390611f8b565b60405180910390fd5b60006002811115610cf057610cef611501565b5b6002811115610d0257610d01611501565b5b6000808673ffffffffffffffffffffffffffffffffffffffff1673ffffffffffffffffffffffffffffffffffffffff16815260200190815260200160002060030183604051610d519190611d06565b908152602001604051809103902060020160009054906101000a900460ff166002811115610d8257610d81611501565b5b14610dc2576040517f08c379a0000000000000000000000000000000000000000000000000000000008152600401610db990611ff7565b60405180910390fd5b60006040518060600160405280858152602001848152602001836002811115610dee57610ded611501565b5b8152509050806000808773ffffffffffffffffffffffffffffffffffffffff1673ffffffffffffffffffffffffffffffffffffffff16815260200190815260200160002060030184604051610e439190611d06565b90815260200160405180910390206000820151816000019081610e669190611bd6565b506020820151816001019081610e7c9190611bd6565b5060408201518160020160006101000a81548160ff02191690836002811115610ea857610ea7611501565b5b02179055509050506000808673ffffffffffffffffffffffffffffffffffffffff1673ffffffffffffffffffffffffffffffffffffffff16815260200190815260200160002060040183908060018154018082558091505060019003906000526020600020016000909190919091509081610f239190611bd6565b508473ffffffffffffffffffffffffffffffffffffffff167f7e36441495113984545f29a9881ab6081c3c29c3ad9d8a38168758d2d7dbfc25858585604051610f6e93929190611578565b60405180910390a25050505050565b6000602052806000526040600020600091509050806000018054610fa0906118fb565b80601f0160208091040260200160405190810160405280929190818152602001828054610fcc906118fb565b80156110195780601f10610fee57610100808354040283529160200191611019565b820191906000526020600020905b815481529060010190602001808311610ffc57829003601f168201915b5050505050908060010160009054906101000a900473ffffffffffffffffffffffffffffffffffffffff16908060020160009054906101000a900473ffffffffffffffffffffffffffffffffffffffff16905083565b6002818051602081018201805184825260208301602085012081835280955050505050506000915054906101000a900460ff1681565b60016020528060005260406000206000915090508060000180546110c8906118fb565b80601f01602080910402602001604051908101604052809291908181526020018280546110f4906118fb565b80156111415780601f1061111657610100808354040283529160200191611141565b820191906000526020600020905b81548152906001019060200180831161112457829003601f168201915b5050505050908060010160009054906101000a900473ffffffffffffffffffffffffffffffffffffffff169080600201805461117c906118fb565b80601f01602080910402602001604051908101604052809291908181526020018280546111a8906118fb565b80156111f55780601f106111ca576101008083540402835291602001916111f5565b820191906000526020600020905b8154815290600101906020018083116111d857829003601f168201915b5050505050908060030160009054906101000a900460ff16905084565b6000604051905090565b600080fd5b600080fd5b600080fd5b600080fd5b6000601f19601f8301169050919050565b7f4e487b7100000000000000000000000000000000000000000000000000000000600052604160045260246000fd5b61127982611230565b810181811067ffffffffffffffff8211171561129857611297611241565b5b80604052505050565b60006112ab611212565b90506112b78282611270565b919050565b600067ffffffffffffffff8211156112d7576112d6611241565b5b6112e082611230565b9050602081019050919050565b82818337600083830152505050565b600061130f61130a846112bc565b6112a1565b90508281526020810184848401111561132b5761132a61122b565b5b6113368482856112ed565b509392505050565b600082601f83011261135357611352611226565b5b81356113638482602086016112fc565b91505092915050565b600073ffffffffffffffffffffffffffffffffffffffff82169050919050565b60006113978261136c565b9050919050565b6113a78161138c565b81146113b257600080fd5b50565b6000813590506113c48161139e565b92915050565b600080604083850312156113e1576113e061121c565b5b600083013567ffffffffffffffff8111156113ff576113fe611221565b5b61140b8582860161133e565b925050602061141c858286016113b5565b9150509250929050565b6000806040838503121561143d5761143c61121c565b5b600061144b858286016113b5565b925050602083013567ffffffffffffffff81111561146c5761146b611221565b5b6114788582860161133e565b9150509250929050565b600081519050919050565b600082825260208201905092915050565b60005b838110156114bc5780820151818401526020810190506114a1565b60008484015250505050565b60006114d382611482565b6114dd818561148d565b93506114ed81856020860161149e565b6114f681611230565b840191505092915050565b7f4e487b7100000000000000000000000000000000000000000000000000000000600052602160045260246000fd5b6003811061154157611540611501565b5b50565b600081905061155282611530565b919050565b600061156282611544565b9050919050565b61157281611557565b82525050565b6000606082019050818103600083015261159281866114c8565b905081810360208301526115a681856114c8565b90506115b56040830184611569565b949350505050565b6000602082840312156115d3576115d261121c565b5b60006115e1848285016113b5565b91505092915050565b6000819050919050565b6115fd816115ea565b82525050565b600060208201905061161860008301846115f4565b92915050565b60008115159050919050565b6116338161161e565b82525050565b600060208201905061164e600083018461162a565b92915050565b61165d8161161e565b811461166857600080fd5b50565b60008135905061167a81611654565b92915050565b6000806000806080858703121561169a5761169961121c565b5b600085013567ffffffffffffffff8111156116b8576116b7611221565b5b6116c48782880161133e565b94505060206116d5878288016113b5565b935050604085013567ffffffffffffffff8111156116f6576116f5611221565b5b6117028782880161133e565b92505060606117138782880161166b565b91505092959194509250565b6003811061172c57600080fd5b50565b60008135905061173e8161171f565b92915050565b6000806000806080858703121561175e5761175d61121c565b5b600061176c878288016113b5565b945050602085013567ffffffffffffffff81111561178d5761178c611221565b5b6117998782880161133e565b935050604085013567ffffffffffffffff8111156117ba576117b9611221565b5b6117c68782880161133e565b92505060606117d78782880161172f565b91505092959194509250565b6117ec8161138c565b82525050565b6000606082019050818103600083015261180c81866114c8565b905061181b60208301856117e3565b61182860408301846117e3565b949350505050565b6000602082840312156118465761184561121c565b5b600082013567ffffffffffffffff81111561186457611863611221565b5b6118708482850161133e565b91505092915050565b6000608082019050818103600083015261189381876114c8565b90506118a260208301866117e3565b81810360408301526118b481856114c8565b90506118c3606083018461162a565b95945050505050565b7f4e487b7100000000000000000000000000000000000000000000000000000000600052602260045260246000fd5b6000600282049050600182168061191357607f821691505b602082108103611926576119256118cc565b5b50919050565b7f4f6e6c792061206c65676974696d61746520756e69766572736974792063616e60008201527f2061646420612073747564656e74000000000000000000000000000000000000602082015250565b6000611988602e8361148d565b91506119938261192c565b604082019050919050565b600060208201905081810360008301526119b78161197b565b9050919050565b7f53747564656e7420616c72656164792065786973747300000000000000000000600082015250565b60006119f460168361148d565b91506119ff826119be565b602082019050919050565b60006020820190508181036000830152611a23816119e7565b9050919050565b60008190508160005260206000209050919050565b60006020601f8301049050919050565b600082821b905092915050565b600060088302611a8c7fffffffffffffffffffffffffffffffffffffffffffffffffffffffffffffffff82611a4f565b611a968683611a4f565b95508019841693508086168417925050509392505050565b6000819050919050565b6000611ad3611ace611ac9846115ea565b611aae565b6115ea565b9050919050565b6000819050919050565b611aed83611ab8565b611b01611af982611ada565b848454611a5c565b825550505050565b600090565b611b16611b09565b611b21818484611ae4565b505050565b5b81811015611b4557611b3a600082611b0e565b600181019050611b27565b5050565b601f821115611b8a57611b5b81611a2a565b611b6484611a3f565b81016020851015611b73578190505b611b87611b7f85611a3f565b830182611b26565b50505b505050565b600082821c905092915050565b6000611bad60001984600802611b8f565b1980831691505092915050565b6000611bc68383611b9c565b9150826002028217905092915050565b611bdf82611482565b67ffffffffffffffff811115611bf857611bf7611241565b5b611c0282546118fb565b611c0d828285611b49565b600060209050601f831160018114611c405760008415611c2e578287015190505b611c388582611bba565b865550611ca0565b601f198416611c4e86611a2a565b60005b82811015611c7657848901518255600182019150602085019450602081019050611c51565b86831015611c935784890151611c8f601f891682611b9c565b8355505b6001600288020188555050505b505050505050565b60006020820190508181036000830152611cc281846114c8565b905092915050565b600081905092915050565b6000611ce082611482565b611cea8185611cca565b9350611cfa81856020860161149e565b80840191505092915050565b6000611d128284611cd5565b915081905092915050565b7f556e6976657273697479206164647265737320616c726561647920657869737460008201527f7300000000000000000000000000000000000000000000000000000000000000602082015250565b6000611d7960218361148d565b9150611d8482611d1d565b604082019050919050565b60006020820190508181036000830152611da881611d6c565b9050919050565b7f4c6963656e7365206e756d62657220616c726561647920657869737473000000600082015250565b6000611de5601d8361148d565b9150611df082611daf565b602082019050919050565b60006020820190508181036000830152611e1481611dd8565b9050919050565b7f556e6976657273697479206d75737420626520617070726f766564206279207460008201527f686520676f7665726e6d656e7400000000000000000000000000000000000000602082015250565b6000611e77602d8361148d565b9150611e8282611e1b565b604082019050919050565b60006020820190508181036000830152611ea681611e6a565b9050919050565b7f53747564656e7420646f6573206e6f7420657869737400000000000000000000600082015250565b6000611ee360168361148d565b9150611eee82611ead565b602082019050919050565b60006020820190508181036000830152611f1281611ed6565b9050919050565b7f4f6e6c792074686520756e69766572736974792074686174206164646564207460008201527f68652073747564656e742063616e2061646420646f63756d656e747300000000602082015250565b6000611f75603c8361148d565b9150611f8082611f19565b604082019050919050565b60006020820190508181036000830152611fa481611f68565b9050919050565b7f446f63756d656e7420616c726561647920657869737473000000000000000000600082015250565b6000611fe160178361148d565b9150611fec82611fab565b602082019050919050565b6000602082019050818103600083015261201081611fd4565b905091905056fea264697066735822122071939a2ab7e728eb125363dabc8d6162b707bd129e00e350638d8c82c1e5cb5564736f6c63430008110033",
  "immutableReferences": {},
  "source": "// SPDX-License-Identifier: MIT\r\npragma solidity ^0.8.0;\r\n\r\ncontract BGV {\r\n    // Enum to represent document access control\r\n    enum AccessType { CompanyOnly, StudentOnly, Both }\r\n\r\n    // Struct to represent a document\r\n    struct Document {\r\n        string name;\r\n        string hashValue;\r\n        AccessType access;\r\n    }\r\n\r\n    // Struct to represent a student\r\n    struct Student {\r\n        string name;\r\n        address studentAddress;\r\n        address addedBy; // Address of the university that added the student\r\n        mapping(string => Document) documents; // Mapping of hashValue to Document\r\n        string[] documentKeys; // Array to store keys of documents mapping\r\n    }\r\n\r\n    // Struct to represent a university\r\n    struct University {\r\n        string name;\r\n        address universityAddress;\r\n        string licenseNumber;\r\n        bool approvedByGovernment;\r\n    }\r\n\r\n    // Mapping to store students by their Ethereum address\r\n    mapping(address => Student) public students;\r\n\r\n    // Mapping to store universities by their Ethereum address\r\n    mapping(address => University) public universities;\r\n\r\n    // Mapping to store license numbers to prevent duplicates\r\n    mapping(string => bool) public licenseNumbers;\r\n\r\n    // Mapping to store university addresses to prevent duplicates\r\n    mapping(address => bool) public universityAddresses;\r\n\r\n    // Event to emit when a new student is added\r\n    event StudentAdded(address indexed studentAddress, string name, address indexed addedBy);\r\n\r\n    // Event to emit when a new document is added to a student\r\n    event DocumentAdded(address indexed studentAddress, string documentName, string hashValue, AccessType access);\r\n\r\n    // Event to emit when a new university is added\r\n    event UniversityAdded(address indexed universityAddress, string name);\r\n\r\n    // Modifier to ensure only a legitimate university can add a student\r\n    modifier onlyLegitimateUniversity(address _universityAddress) {\r\n        require(universities[_universityAddress].approvedByGovernment && bytes(universities[_universityAddress].licenseNumber).length > 0, \"Only a legitimate university can add a student\");\r\n        _;\r\n    }\r\n\r\n    // Function to add a new student\r\n    function addStudent(string memory _name, address _studentAddress) public onlyLegitimateUniversity(msg.sender) {\r\n        // Ensure the student does not already exist\r\n        require(students[_studentAddress].studentAddress == address(0), \"Student already exists\");\r\n\r\n        // Create a new student\r\n        Student storage newStudent = students[_studentAddress];\r\n        newStudent.name = _name;\r\n        newStudent.studentAddress = _studentAddress;\r\n        newStudent.addedBy = msg.sender; // Set the university that added the student\r\n\r\n        // Emit an event to notify that a new student has been added\r\n        emit StudentAdded(_studentAddress, _name, msg.sender);\r\n    }\r\n\r\n    // Function to add a document to an existing student\r\n    function addDocumentToStudent(address _studentAddress, string memory _documentName, string memory _hashValue, AccessType _access) public {\r\n        // Ensure the student exists\r\n        require(students[_studentAddress].studentAddress != address(0), \"Student does not exist\");\r\n\r\n        // Ensure the caller is the university that added the student\r\n        require(msg.sender == students[_studentAddress].addedBy, \"Only the university that added the student can add documents\");\r\n\r\n        // Check if a document with the same hash value already exists\r\n        require(students[_studentAddress].documents[_hashValue].access == AccessType(0), \"Document already exists\");\r\n\r\n        // Create a new document\r\n        Document memory newDocument = Document({\r\n            name: _documentName,\r\n            hashValue: _hashValue,\r\n            access: _access\r\n        });\r\n\r\n        // Add the document to the student's mapping\r\n        students[_studentAddress].documents[_hashValue] = newDocument;\r\n        students[_studentAddress].documentKeys.push(_hashValue); // Add the key to documentKeys array\r\n\r\n        // Emit an event to notify that a new document has been added to the student\r\n        emit DocumentAdded(_studentAddress, _documentName, _hashValue, _access);\r\n    }\r\n\r\n    // Function to add a new university\r\n    function addUniversity(string memory _name, address _universityAddress, string memory _licenseNumber, bool _approvedByGovernment) public {\r\n        // Ensure the university address is unique\r\n        require(!universityAddresses[_universityAddress], \"University address already exists\");\r\n\r\n        // Ensure the license number is unique\r\n        require(!licenseNumbers[_licenseNumber], \"License number already exists\");\r\n\r\n        // Ensure the university is approved by the government\r\n        require(_approvedByGovernment, \"University must be approved by the government\");\r\n\r\n        // Create a new university\r\n        University storage newUniversity = universities[_universityAddress];\r\n        newUniversity.name = _name;\r\n        newUniversity.universityAddress = _universityAddress;\r\n        newUniversity.licenseNumber = _licenseNumber;\r\n        newUniversity.approvedByGovernment = _approvedByGovernment;\r\n\r\n        // Mark the license number and university address as used\r\n        licenseNumbers[_licenseNumber] = true;\r\n        universityAddresses[_universityAddress] = true;\r\n\r\n        // Emit an event to notify that a new university has been added\r\n        emit UniversityAdded(_universityAddress, _name);\r\n    }\r\n\r\n    // Function to verify if a university is legitimate\r\n    function isUniversityLegitimate(address _universityAddress) public view returns (bool) {\r\n        return universities[_universityAddress].approvedByGovernment && bytes(universities[_universityAddress].licenseNumber).length > 0;\r\n    }\r\n\r\n    // Function to get the count of documents for a student\r\n    function getDocumentCount(address _studentAddress) public view returns (uint) {\r\n        return students[_studentAddress].documentKeys.length;\r\n    }\r\n\r\n    // Function to get the details of a document for a student\r\n    function getDocumentDetails(address _studentAddress, string memory _hashValue) public view returns (string memory, string memory, AccessType) {\r\n        Document memory doc = students[_studentAddress].documents[_hashValue];\r\n        return (doc.name, doc.hashValue, doc.access);\r\n    }\r\n}\r\n",
  "sourcePath": "C:\\Users\\91988\\Documents\\BGV\\contracts\\BGV.sol",
  "compiler": {
    "name": "solc",
    "version": "0.8.17+commit.8df45f5f.Emscripten.clang"
  },
  "schemaVersion": "3.4.16",
  "updatedAt": "2024-03-30T12:18:15.430Z",
  "devdoc": {
    "kind": "dev",
    "methods": {},
    "version": 1
  },
  "userdoc": {
    "kind": "user",
    "methods": {},
    "version": 1
  }
}