{
  "contractName": "BGV",
  "abi": [
    {
      "anonymous": false,
      "inputs": [
        {
          "indexed": true,
          "internalType": "address",
          "name": "studentAddress",
          "type": "address"
        },
        {
          "indexed": false,
          "internalType": "string",
          "name": "documentName",
          "type": "string"
        },
        {
          "indexed": false,
          "internalType": "string",
          "name": "hashValue",
          "type": "string"
        }
      ],
      "name": "DocumentAdded",
      "type": "event"
    },
    {
      "anonymous": false,
      "inputs": [
        {
          "indexed": true,
          "internalType": "address",
          "name": "studentAddress",
          "type": "address"
        },
        {
          "indexed": false,
          "internalType": "string",
          "name": "name",
          "type": "string"
        },
        {
          "indexed": true,
          "internalType": "address",
          "name": "addedBy",
          "type": "address"
        }
      ],
      "name": "StudentAdded",
      "type": "event"
    },
    {
      "anonymous": false,
      "inputs": [
        {
          "indexed": true,
          "internalType": "address",
          "name": "universityAddress",
          "type": "address"
        },
        {
          "indexed": false,
          "internalType": "string",
          "name": "name",
          "type": "string"
        }
      ],
      "name": "UniversityAdded",
      "type": "event"
    },
    {
      "inputs": [
        {
          "internalType": "string",
          "name": "",
          "type": "string"
        }
      ],
      "name": "licenseNumbers",
      "outputs": [
        {
          "internalType": "bool",
          "name": "",
          "type": "bool"
        }
      ],
      "stateMutability": "view",
      "type": "function"
    },
    {
      "inputs": [
        {
          "internalType": "address",
          "name": "",
          "type": "address"
        }
      ],
      "name": "students",
      "outputs": [
        {
          "internalType": "string",
          "name": "name",
          "type": "string"
        },
        {
          "internalType": "address",
          "name": "studentAddress",
          "type": "address"
        },
        {
          "internalType": "address",
          "name": "addedBy",
          "type": "address"
        }
      ],
      "stateMutability": "view",
      "type": "function"
    },
    {
      "inputs": [
        {
          "internalType": "address",
          "name": "",
          "type": "address"
        }
      ],
      "name": "universities",
      "outputs": [
        {
          "internalType": "string",
          "name": "name",
          "type": "string"
        },
        {
          "internalType": "address",
          "name": "universityAddress",
          "type": "address"
        },
        {
          "internalType": "string",
          "name": "licenseNumber",
          "type": "string"
        },
        {
          "internalType": "bool",
          "name": "approvedByGovernment",
          "type": "bool"
        }
      ],
      "stateMutability": "view",
      "type": "function"
    },
    {
      "inputs": [
        {
          "internalType": "address",
          "name": "",
          "type": "address"
        }
      ],
      "name": "universityAddresses",
      "outputs": [
        {
          "internalType": "bool",
          "name": "",
          "type": "bool"
        }
      ],
      "stateMutability": "view",
      "type": "function"
    },
    {
      "inputs": [
        {
          "internalType": "string",
          "name": "_name",
          "type": "string"
        },
        {
          "internalType": "address",
          "name": "_studentAddress",
          "type": "address"
        }
      ],
      "name": "addStudent",
      "outputs": [],
      "stateMutability": "nonpayable",
      "type": "function"
    },
    {
      "inputs": [
        {
          "internalType": "address",
          "name": "_studentAddress",
          "type": "address"
        },
        {
          "internalType": "string",
          "name": "_documentName",
          "type": "string"
        },
        {
          "internalType": "string",
          "name": "_hashValue",
          "type": "string"
        }
      ],
      "name": "addDocumentToStudent",
      "outputs": [],
      "stateMutability": "nonpayable",
      "type": "function"
    },
    {
      "inputs": [
        {
          "internalType": "string",
          "name": "_name",
          "type": "string"
        },
        {
          "internalType": "address",
          "name": "_universityAddress",
          "type": "address"
        },
        {
          "internalType": "string",
          "name": "_licenseNumber",
          "type": "string"
        },
        {
          "internalType": "bool",
          "name": "_approvedByGovernment",
          "type": "bool"
        }
      ],
      "name": "addUniversity",
      "outputs": [],
      "stateMutability": "nonpayable",
      "type": "function"
    },
    {
      "inputs": [
        {
          "internalType": "address",
          "name": "_universityAddress",
          "type": "address"
        }
      ],
      "name": "isUniversityLegitimate",
      "outputs": [
        {
          "internalType": "bool",
          "name": "",
          "type": "bool"
        }
      ],
      "stateMutability": "view",
      "type": "function"
    },
    {
      "inputs": [
        {
          "internalType": "address",
          "name": "_studentAddress",
          "type": "address"
        }
      ],
      "name": "getDocumentCount",
      "outputs": [
        {
          "internalType": "uint256",
          "name": "",
          "type": "uint256"
        }
      ],
      "stateMutability": "view",
      "type": "function"
    },
    {
      "inputs": [
        {
          "internalType": "address",
          "name": "_studentAddress",
          "type": "address"
        }
      ],
      "name": "getDocumentDetails",
      "outputs": [
        {
          "internalType": "string[]",
          "name": "",
          "type": "string[]"
        },
        {
          "internalType": "string[]",
          "name": "",
          "type": "string[]"
        }
      ],
      "stateMutability": "view",
      "type": "function"
    }
  ],
  "bytecode": "0x608060405234801561000f575f80fd5b506121a98061001d5f395ff3fe608060405234801561000f575f80fd5b506004361061009c575f3560e01c80636166333f116100645780636166333f1461017d578063a6c807a914610199578063d1924ede146101cb578063f0995560146101fb578063f602b80f1461022e5761009c565b806310468c2f146100a05780633b993fe0146100bc57806351e67458146100ec57806353977e541461011c578063548de9f71461014c575b5f80fd5b6100ba60048036038101906100b5919061142a565b61024a565b005b6100d660048036038101906100d19190611484565b610539565b6040516100e391906114c7565b60405180910390f35b61010660048036038101906101019190611484565b610584565b60405161011391906114fa565b60405180910390f35b61013660048036038101906101319190611484565b6105a1565b60405161014391906114fa565b60405180910390f35b61016660048036038101906101619190611484565b61064d565b604051610174929190611648565b60405180910390f35b610197600480360381019061019291906116a7565b6109a4565b005b6101b360048036038101906101ae9190611484565b610c79565b6040516101c29392919061179a565b60405180910390f35b6101e560048036038101906101e091906117d6565b610d62565b6040516101f291906114fa565b60405180910390f35b61021560048036038101906102109190611484565b610d97565b604051610225949392919061181d565b60405180910390f35b6102486004803603810190610243919061186e565b610efa565b005b3360015f8273ffffffffffffffffffffffffffffffffffffffff1673ffffffffffffffffffffffffffffffffffffffff1681526020019081526020015f206003015f9054906101000a900460ff1680156102ef57505f60015f8373ffffffffffffffffffffffffffffffffffffffff1673ffffffffffffffffffffffffffffffffffffffff1681526020019081526020015f2060020180546102eb90611923565b9050115b61032e576040517f08c379a0000000000000000000000000000000000000000000000000000000008152600401610325906119c3565b60405180910390fd5b5f73ffffffffffffffffffffffffffffffffffffffff165f808473ffffffffffffffffffffffffffffffffffffffff1673ffffffffffffffffffffffffffffffffffffffff1681526020019081526020015f206001015f9054906101000a900473ffffffffffffffffffffffffffffffffffffffff1673ffffffffffffffffffffffffffffffffffffffff16146103fa576040517f08c379a00000000000000000000000000000000000000000000000000000000081526004016103f190611a2b565b60405180910390fd5b5f805f8473ffffffffffffffffffffffffffffffffffffffff1673ffffffffffffffffffffffffffffffffffffffff1681526020019081526020015f20905083815f0190816104499190611be6565b5082816001015f6101000a81548173ffffffffffffffffffffffffffffffffffffffff021916908373ffffffffffffffffffffffffffffffffffffffff16021790555033816002015f6101000a81548173ffffffffffffffffffffffffffffffffffffffff021916908373ffffffffffffffffffffffffffffffffffffffff1602179055503373ffffffffffffffffffffffffffffffffffffffff168373ffffffffffffffffffffffffffffffffffffffff167fc902157d0d935238ddf40055643d8152eef5670ddb5272f02869e8dbeaf5dcd68660405161052b9190611cb5565b60405180910390a350505050565b5f805f8373ffffffffffffffffffffffffffffffffffffffff1673ffffffffffffffffffffffffffffffffffffffff1681526020019081526020015f20600301805490509050919050565b6003602052805f5260405f205f915054906101000a900460ff1681565b5f60015f8373ffffffffffffffffffffffffffffffffffffffff1673ffffffffffffffffffffffffffffffffffffffff1681526020019081526020015f206003015f9054906101000a900460ff16801561064657505f60015f8473ffffffffffffffffffffffffffffffffffffffff1673ffffffffffffffffffffffffffffffffffffffff1681526020019081526020015f20600201805461064290611923565b9050115b9050919050565b606080828073ffffffffffffffffffffffffffffffffffffffff163373ffffffffffffffffffffffffffffffffffffffff16146106bf576040517f08c379a00000000000000000000000000000000000000000000000000000000081526004016106b690611d45565b60405180910390fd5b5f805f8673ffffffffffffffffffffffffffffffffffffffff1673ffffffffffffffffffffffffffffffffffffffff1681526020019081526020015f206003018054905090505f8167ffffffffffffffff8111156107205761071f6112ac565b5b60405190808252806020026020018201604052801561075357816020015b606081526020019060019003908161073e5790505b5090505f8267ffffffffffffffff811115610771576107706112ac565b5b6040519080825280602002602001820160405280156107a457816020015b606081526020019060019003908161078f5790505b5090505f5b83811015610994575f805f8a73ffffffffffffffffffffffffffffffffffffffff1673ffffffffffffffffffffffffffffffffffffffff1681526020019081526020015f20600301828154811061080357610802611d63565b5b905f5260205f2090600202016040518060400160405290815f8201805461082990611923565b80601f016020809104026020016040519081016040528092919081815260200182805461085590611923565b80156108a05780601f10610877576101008083540402835291602001916108a0565b820191905f5260205f20905b81548152906001019060200180831161088357829003601f168201915b505050505081526020016001820180546108b990611923565b80601f01602080910402602001604051908101604052809291908181526020018280546108e590611923565b80156109305780601f1061090757610100808354040283529160200191610930565b820191905f5260205f20905b81548152906001019060200180831161091357829003601f168201915b5050505050815250509050805f015184838151811061095257610951611d63565b5b6020026020010181905250806020015183838151811061097557610974611d63565b5b602002602001018190525050808061098c90611dbd565b9150506107a9565b5081819550955050505050915091565b60035f8473ffffffffffffffffffffffffffffffffffffffff1673ffffffffffffffffffffffffffffffffffffffff1681526020019081526020015f205f9054906101000a900460ff1615610a2e576040517f08c379a0000000000000000000000000000000000000000000000000000000008152600401610a2590611e74565b60405180910390fd5b600282604051610a3e9190611ecc565b90815260200160405180910390205f9054906101000a900460ff1615610a99576040517f08c379a0000000000000000000000000000000000000000000000000000000008152600401610a9090611f2c565b60405180910390fd5b80610ad9576040517f08c379a0000000000000000000000000000000000000000000000000000000008152600401610ad090611fba565b60405180910390fd5b5f60015f8573ffffffffffffffffffffffffffffffffffffffff1673ffffffffffffffffffffffffffffffffffffffff1681526020019081526020015f20905084815f019081610b299190611be6565b5083816001015f6101000a81548173ffffffffffffffffffffffffffffffffffffffff021916908373ffffffffffffffffffffffffffffffffffffffff16021790555082816002019081610b7d9190611be6565b5081816003015f6101000a81548160ff0219169083151502179055506001600284604051610bab9190611ecc565b90815260200160405180910390205f6101000a81548160ff021916908315150217905550600160035f8673ffffffffffffffffffffffffffffffffffffffff1673ffffffffffffffffffffffffffffffffffffffff1681526020019081526020015f205f6101000a81548160ff0219169083151502179055508373ffffffffffffffffffffffffffffffffffffffff167fec1e06e5bcd47cc0ab9791be5856f0e0bab5a2be711f3f3fd979d4c694c7c1f986604051610c6a9190611cb5565b60405180910390a25050505050565b5f602052805f5260405f205f91509050805f018054610c9790611923565b80601f0160208091040260200160405190810160405280929190818152602001828054610cc390611923565b8015610d0e5780601f10610ce557610100808354040283529160200191610d0e565b820191905f5260205f20905b815481529060010190602001808311610cf157829003601f168201915b505050505090806001015f9054906101000a900473ffffffffffffffffffffffffffffffffffffffff1690806002015f9054906101000a900473ffffffffffffffffffffffffffffffffffffffff16905083565b6002818051602081018201805184825260208301602085012081835280955050505050505f915054906101000a900460ff1681565b6001602052805f5260405f205f91509050805f018054610db690611923565b80601f0160208091040260200160405190810160405280929190818152602001828054610de290611923565b8015610e2d5780601f10610e0457610100808354040283529160200191610e2d565b820191905f5260205f20905b815481529060010190602001808311610e1057829003601f168201915b505050505090806001015f9054906101000a900473ffffffffffffffffffffffffffffffffffffffff1690806002018054610e6790611923565b80601f0160208091040260200160405190810160405280929190818152602001828054610e9390611923565b8015610ede5780601f10610eb557610100808354040283529160200191610ede565b820191905f5260205f20905b815481529060010190602001808311610ec157829003601f168201915b505050505090806003015f9054906101000a900460ff16905084565b828073ffffffffffffffffffffffffffffffffffffffff163373ffffffffffffffffffffffffffffffffffffffff1614610f69576040517f08c379a0000000000000000000000000000000000000000000000000000000008152600401610f6090611d45565b60405180910390fd5b5f73ffffffffffffffffffffffffffffffffffffffff165f808673ffffffffffffffffffffffffffffffffffffffff1673ffffffffffffffffffffffffffffffffffffffff1681526020019081526020015f206001015f9054906101000a900473ffffffffffffffffffffffffffffffffffffffff1673ffffffffffffffffffffffffffffffffffffffff1603611035576040517f08c379a000000000000000000000000000000000000000000000000000000000815260040161102c90612022565b60405180910390fd5b5f5b5f808673ffffffffffffffffffffffffffffffffffffffff1673ffffffffffffffffffffffffffffffffffffffff1681526020019081526020015f206003018054905081101561118157826040516020016110929190611ecc565b604051602081830303815290604052805190602001205f808773ffffffffffffffffffffffffffffffffffffffff1673ffffffffffffffffffffffffffffffffffffffff1681526020019081526020015f2060030182815481106110f9576110f8611d63565b5b905f5260205f20906002020160010160405160200161111891906120c0565b604051602081830303815290604052805190602001200361116e576040517f08c379a000000000000000000000000000000000000000000000000000000000815260040161116590612120565b60405180910390fd5b808061117990611dbd565b915050611037565b505f60405180604001604052808581526020018481525090505f808673ffffffffffffffffffffffffffffffffffffffff1673ffffffffffffffffffffffffffffffffffffffff1681526020019081526020015f2060030181908060018154018082558091505060019003905f5260205f2090600202015f909190919091505f820151815f0190816112139190611be6565b5060208201518160010190816112299190611be6565b5050508473ffffffffffffffffffffffffffffffffffffffff167f07645f127bfac4daf3357acb380f90f0224d68150d39744ebb2fdf1e58a7206f858560405161127492919061213e565b60405180910390a25050505050565b5f604051905090565b5f80fd5b5f80fd5b5f80fd5b5f80fd5b5f601f19601f8301169050919050565b7f4e487b71000000000000000000000000000000000000000000000000000000005f52604160045260245ffd5b6112e28261129c565b810181811067ffffffffffffffff82111715611301576113006112ac565b5b80604052505050565b5f611313611283565b905061131f82826112d9565b919050565b5f67ffffffffffffffff82111561133e5761133d6112ac565b5b6113478261129c565b9050602081019050919050565b828183375f83830152505050565b5f61137461136f84611324565b61130a565b9050828152602081018484840111156113905761138f611298565b5b61139b848285611354565b509392505050565b5f82601f8301126113b7576113b6611294565b5b81356113c7848260208601611362565b91505092915050565b5f73ffffffffffffffffffffffffffffffffffffffff82169050919050565b5f6113f9826113d0565b9050919050565b611409816113ef565b8114611413575f80fd5b50565b5f8135905061142481611400565b92915050565b5f80604083850312156114405761143f61128c565b5b5f83013567ffffffffffffffff81111561145d5761145c611290565b5b611469858286016113a3565b925050602061147a85828601611416565b9150509250929050565b5f602082840312156114995761149861128c565b5b5f6114a684828501611416565b91505092915050565b5f819050919050565b6114c1816114af565b82525050565b5f6020820190506114da5f8301846114b8565b92915050565b5f8115159050919050565b6114f4816114e0565b82525050565b5f60208201905061150d5f8301846114eb565b92915050565b5f81519050919050565b5f82825260208201905092915050565b5f819050602082019050919050565b5f81519050919050565b5f82825260208201905092915050565b5f5b83811015611573578082015181840152602081019050611558565b5f8484015250505050565b5f6115888261153c565b6115928185611546565b93506115a2818560208601611556565b6115ab8161129c565b840191505092915050565b5f6115c1838361157e565b905092915050565b5f602082019050919050565b5f6115df82611513565b6115e9818561151d565b9350836020820285016115fb8561152d565b805f5b85811015611636578484038952815161161785826115b6565b9450611622836115c9565b925060208a019950506001810190506115fe565b50829750879550505050505092915050565b5f6040820190508181035f83015261166081856115d5565b9050818103602083015261167481846115d5565b90509392505050565b611686816114e0565b8114611690575f80fd5b50565b5f813590506116a18161167d565b92915050565b5f805f80608085870312156116bf576116be61128c565b5b5f85013567ffffffffffffffff8111156116dc576116db611290565b5b6116e8878288016113a3565b94505060206116f987828801611416565b935050604085013567ffffffffffffffff81111561171a57611719611290565b5b611726878288016113a3565b925050606061173787828801611693565b91505092959194509250565b5f82825260208201905092915050565b5f61175d8261153c565b6117678185611743565b9350611777818560208601611556565b6117808161129c565b840191505092915050565b611794816113ef565b82525050565b5f6060820190508181035f8301526117b28186611753565b90506117c1602083018561178b565b6117ce604083018461178b565b949350505050565b5f602082840312156117eb576117ea61128c565b5b5f82013567ffffffffffffffff81111561180857611807611290565b5b611814848285016113a3565b91505092915050565b5f6080820190508181035f8301526118358187611753565b9050611844602083018661178b565b81810360408301526118568185611753565b905061186560608301846114eb565b95945050505050565b5f805f606084860312156118855761188461128c565b5b5f61189286828701611416565b935050602084013567ffffffffffffffff8111156118b3576118b2611290565b5b6118bf868287016113a3565b925050604084013567ffffffffffffffff8111156118e0576118df611290565b5b6118ec868287016113a3565b9150509250925092565b7f4e487b71000000000000000000000000000000000000000000000000000000005f52602260045260245ffd5b5f600282049050600182168061193a57607f821691505b60208210810361194d5761194c6118f6565b5b50919050565b7f4f6e6c792061206c65676974696d61746520756e69766572736974792063616e5f8201527f2061646420612073747564656e74000000000000000000000000000000000000602082015250565b5f6119ad602e83611743565b91506119b882611953565b604082019050919050565b5f6020820190508181035f8301526119da816119a1565b9050919050565b7f53747564656e7420616c726561647920657869737473000000000000000000005f82015250565b5f611a15601683611743565b9150611a20826119e1565b602082019050919050565b5f6020820190508181035f830152611a4281611a09565b9050919050565b5f819050815f5260205f209050919050565b5f6020601f8301049050919050565b5f82821b905092915050565b5f60088302611aa57fffffffffffffffffffffffffffffffffffffffffffffffffffffffffffffffff82611a6a565b611aaf8683611a6a565b95508019841693508086168417925050509392505050565b5f819050919050565b5f611aea611ae5611ae0846114af565b611ac7565b6114af565b9050919050565b5f819050919050565b611b0383611ad0565b611b17611b0f82611af1565b848454611a76565b825550505050565b5f90565b611b2b611b1f565b611b36818484611afa565b505050565b5b81811015611b5957611b4e5f82611b23565b600181019050611b3c565b5050565b601f821115611b9e57611b6f81611a49565b611b7884611a5b565b81016020851015611b87578190505b611b9b611b9385611a5b565b830182611b3b565b50505b505050565b5f82821c905092915050565b5f611bbe5f1984600802611ba3565b1980831691505092915050565b5f611bd68383611baf565b9150826002028217905092915050565b611bef8261153c565b67ffffffffffffffff811115611c0857611c076112ac565b5b611c128254611923565b611c1d828285611b5d565b5f60209050601f831160018114611c4e575f8415611c3c578287015190505b611c468582611bcb565b865550611cad565b601f198416611c5c86611a49565b5f5b82811015611c8357848901518255600182019150602085019450602081019050611c5e565b86831015611ca05784890151611c9c601f891682611baf565b8355505b6001600288020188555050505b505050505050565b5f6020820190508181035f830152611ccd8184611753565b905092915050565b7f4f6e6c79207468652073747564656e742063616e2061636365737320746865695f8201527f72206f776e20646f63756d656e74730000000000000000000000000000000000602082015250565b5f611d2f602f83611743565b9150611d3a82611cd5565b604082019050919050565b5f6020820190508181035f830152611d5c81611d23565b9050919050565b7f4e487b71000000000000000000000000000000000000000000000000000000005f52603260045260245ffd5b7f4e487b71000000000000000000000000000000000000000000000000000000005f52601160045260245ffd5b5f611dc7826114af565b91507fffffffffffffffffffffffffffffffffffffffffffffffffffffffffffffffff8203611df957611df8611d90565b5b600182019050919050565b7f556e6976657273697479206164647265737320616c72656164792065786973745f8201527f7300000000000000000000000000000000000000000000000000000000000000602082015250565b5f611e5e602183611743565b9150611e6982611e04565b604082019050919050565b5f6020820190508181035f830152611e8b81611e52565b9050919050565b5f81905092915050565b5f611ea68261153c565b611eb08185611e92565b9350611ec0818560208601611556565b80840191505092915050565b5f611ed78284611e9c565b915081905092915050565b7f4c6963656e7365206e756d62657220616c7265616479206578697374730000005f82015250565b5f611f16601d83611743565b9150611f2182611ee2565b602082019050919050565b5f6020820190508181035f830152611f4381611f0a565b9050919050565b7f556e6976657273697479206d75737420626520617070726f76656420627920745f8201527f686520676f7665726e6d656e7400000000000000000000000000000000000000602082015250565b5f611fa4602d83611743565b9150611faf82611f4a565b604082019050919050565b5f6020820190508181035f830152611fd181611f98565b9050919050565b7f53747564656e7420646f6573206e6f74206578697374000000000000000000005f82015250565b5f61200c601683611743565b915061201782611fd8565b602082019050919050565b5f6020820190508181035f83015261203981612000565b9050919050565b5f815461204c81611923565b6120568186611e92565b9450600182165f81146120705760018114612085576120b7565b60ff19831686528115158202860193506120b7565b61208e85611a49565b5f5b838110156120af57815481890152600182019150602081019050612090565b838801955050505b50505092915050565b5f6120cb8284612040565b915081905092915050565b7f446f63756d656e7420616c7265616479206578697374730000000000000000005f82015250565b5f61210a601783611743565b9150612115826120d6565b602082019050919050565b5f6020820190508181035f830152612137816120fe565b9050919050565b5f6040820190508181035f8301526121568185611753565b9050818103602083015261216a8184611753565b9050939250505056fea2646970667358221220727dfa2dbc95f3c70e31d60b1b764ea81ec2baf3e1188b742700b5c2824aa57864736f6c63430008150033",
  "immutableReferences": {},
  "source": "// SPDX-License-Identifier: MIT\r\npragma solidity ^0.8.0;\r\n\r\ncontract BGV {\r\n    // Struct to represent a document\r\n    struct Document {\r\n        string name;\r\n        string hashValue;\r\n    }\r\n\r\n    // Struct to represent a student\r\n    struct Student {\r\n        string name;\r\n        address studentAddress;\r\n        address addedBy; // Address of the person who added the student\r\n        Document[] documents; // Array of documents associated with the student\r\n    }\r\n\r\n    // Struct to represent a university\r\n    struct University {\r\n        string name;\r\n        address universityAddress;\r\n        string licenseNumber;\r\n        bool approvedByGovernment;\r\n    }\r\n\r\n    // Mapping to store students by their Ethereum address\r\n    mapping(address => Student) public students;\r\n\r\n    // Mapping to store universities by their Ethereum address\r\n    mapping(address => University) public universities;\r\n\r\n    // Mapping to store license numbers to prevent duplicates\r\n    mapping(string => bool) public licenseNumbers;\r\n\r\n    // Mapping to store university addresses to prevent duplicates\r\n    mapping(address => bool) public universityAddresses;\r\n\r\n    // Event to emit when a new student is added\r\n    event StudentAdded(address indexed studentAddress, string name, address indexed addedBy);\r\n\r\n    // Event to emit when a new document is added to a student\r\n    event DocumentAdded(address indexed studentAddress, string documentName, string hashValue);\r\n\r\n    // Event to emit when a new university is added\r\n    event UniversityAdded(address indexed universityAddress, string name);\r\n\r\n    // Modifier to ensure only the student can access their document details\r\n    modifier onlyStudent(address _studentAddress) {\r\n        require(msg.sender == _studentAddress, \"Only the student can access their own documents\");\r\n        _;\r\n    }\r\n\r\n    // Modifier to ensure only a legitimate university can add a student\r\n    modifier onlyLegitimateUniversity(address _universityAddress) {\r\n        require(universities[_universityAddress].approvedByGovernment && bytes(universities[_universityAddress].licenseNumber).length > 0, \"Only a legitimate university can add a student\");\r\n        _;\r\n    }\r\n\r\n    // Function to add a new student\r\n    function addStudent(string memory _name, address _studentAddress ) public onlyLegitimateUniversity(msg.sender) {\r\n        // Ensure the student does not already exist\r\n        require(students[_studentAddress].studentAddress == address(0), \"Student already exists\");\r\n\r\n        // Create a new student\r\n        Student storage newStudent = students[_studentAddress];\r\n        newStudent.name = _name;\r\n        newStudent.studentAddress = _studentAddress;\r\n        newStudent.addedBy = msg.sender; // Changed to university address\r\n\r\n        // Emit an event to notify that a new student has been added\r\n        emit StudentAdded(_studentAddress, _name, msg.sender);\r\n    }\r\n\r\n    // Function to add a document to an existing student\r\n    function addDocumentToStudent(address _studentAddress, string memory _documentName, string memory _hashValue) public onlyStudent(_studentAddress) {\r\n        // Ensure the student exists\r\n        require(students[_studentAddress].studentAddress != address(0), \"Student does not exist\");\r\n\r\n        // Check if a document with the same hash value already exists\r\n        for (uint i = 0; i < students[_studentAddress].documents.length; i++) {\r\n            if (keccak256(abi.encodePacked(students[_studentAddress].documents[i].hashValue)) == keccak256(abi.encodePacked(_hashValue))) {\r\n                revert(\"Document already exists\");\r\n            }\r\n        }\r\n\r\n        // Create a new document\r\n        Document memory newDocument = Document({\r\n            name: _documentName,\r\n            hashValue: _hashValue\r\n        });\r\n\r\n        // Add the document to the student's array\r\n        students[_studentAddress].documents.push(newDocument);\r\n\r\n        // Emit an event to notify that a new document has been added to the student\r\n        emit DocumentAdded(_studentAddress, _documentName, _hashValue);\r\n    }\r\n\r\n    // Function to add a new university\r\n    function addUniversity(string memory _name, address _universityAddress, string memory _licenseNumber, bool _approvedByGovernment) public {\r\n        // Ensure the university address is unique\r\n        require(!universityAddresses[_universityAddress], \"University address already exists\");\r\n\r\n        // Ensure the license number is unique\r\n        require(!licenseNumbers[_licenseNumber], \"License number already exists\");\r\n\r\n         // Ensure the university is approved by the government\r\n        require(_approvedByGovernment, \"University must be approved by the government\");\r\n\r\n        // Create a new university\r\n        University storage newUniversity = universities[_universityAddress];\r\n        newUniversity.name = _name;\r\n        newUniversity.universityAddress = _universityAddress;\r\n        newUniversity.licenseNumber = _licenseNumber;\r\n        newUniversity.approvedByGovernment = _approvedByGovernment;\r\n\r\n        // Mark the license number and university address as used\r\n        licenseNumbers[_licenseNumber] = true;\r\n        universityAddresses[_universityAddress] = true;\r\n\r\n        // Emit an event to notify that a new university has been added\r\n        emit UniversityAdded(_universityAddress, _name);\r\n    }\r\n\r\n    // Function to verify if a university is legitimate\r\n    function isUniversityLegitimate(address _universityAddress) public view returns (bool) {\r\n        return universities[_universityAddress].approvedByGovernment && bytes(universities[_universityAddress].licenseNumber).length > 0;\r\n    }\r\n\r\n    // Function to get the count of documents for a student\r\n    function getDocumentCount(address _studentAddress) public view returns (uint) {\r\n        return students[_studentAddress].documents.length;\r\n    }\r\n\r\n    // Function to get the details of all documents for a student\r\n    function getDocumentDetails(address _studentAddress) public view onlyStudent(_studentAddress) returns (string[] memory, string[] memory) {\r\n        uint documentCount = students[_studentAddress].documents.length;\r\n\r\n        string[] memory documentNames = new string[](documentCount);\r\n        string[] memory hashValues = new string[](documentCount);\r\n\r\n        for (uint i = 0; i < documentCount; i++) {\r\n            Document memory doc = students[_studentAddress].documents[i];\r\n            documentNames[i] = doc.name;\r\n            hashValues[i] = doc.hashValue;\r\n        }\r\n\r\n        return (documentNames, hashValues);\r\n    }\r\n}\r\n",
  "sourcePath": "C:\\Users\\91988\\Documents\\BGV\\contracts\\BGV.sol",
  "compiler": {
    "name": "solc",
    "version": "0.8.21+commit.d9974bed.Emscripten.clang"
  },
  "schemaVersion": "3.4.16",
  "updatedAt": "2024-03-04T12:29:52.891Z",
  "devdoc": {
    "kind": "dev",
    "methods": {},
    "version": 1
  },
  "userdoc": {
    "kind": "user",
    "methods": {},
    "version": 1
  }
}