{
  "contractName": "BGV",
  "abi": [
    {
      "anonymous": false,
      "inputs": [
        {
          "indexed": true,
          "internalType": "address",
          "name": "studentAddress",
          "type": "address"
        },
        {
          "indexed": false,
          "internalType": "string",
          "name": "documentName",
          "type": "string"
        },
        {
          "indexed": false,
          "internalType": "string",
          "name": "hashValue",
          "type": "string"
        }
      ],
      "name": "DocumentAdded",
      "type": "event"
    },
    {
      "anonymous": false,
      "inputs": [
        {
          "indexed": true,
          "internalType": "address",
          "name": "studentAddress",
          "type": "address"
        },
        {
          "indexed": false,
          "internalType": "string",
          "name": "name",
          "type": "string"
        },
        {
          "indexed": true,
          "internalType": "address",
          "name": "addedBy",
          "type": "address"
        }
      ],
      "name": "StudentAdded",
      "type": "event"
    },
    {
      "inputs": [
        {
          "internalType": "address",
          "name": "",
          "type": "address"
        }
      ],
      "name": "students",
      "outputs": [
        {
          "internalType": "string",
          "name": "name",
          "type": "string"
        },
        {
          "internalType": "address",
          "name": "studentAddress",
          "type": "address"
        },
        {
          "internalType": "address",
          "name": "addedBy",
          "type": "address"
        }
      ],
      "stateMutability": "view",
      "type": "function"
    },
    {
      "inputs": [
        {
          "internalType": "string",
          "name": "_name",
          "type": "string"
        },
        {
          "internalType": "address",
          "name": "_studentAddress",
          "type": "address"
        }
      ],
      "name": "addStudent",
      "outputs": [],
      "stateMutability": "nonpayable",
      "type": "function"
    },
    {
      "inputs": [
        {
          "internalType": "address",
          "name": "_studentAddress",
          "type": "address"
        },
        {
          "internalType": "string",
          "name": "_documentName",
          "type": "string"
        },
        {
          "internalType": "string",
          "name": "_hashValue",
          "type": "string"
        }
      ],
      "name": "addDocumentToStudent",
      "outputs": [],
      "stateMutability": "nonpayable",
      "type": "function"
    },
    {
      "inputs": [
        {
          "internalType": "address",
          "name": "_studentAddress",
          "type": "address"
        }
      ],
      "name": "getDocumentCount",
      "outputs": [
        {
          "internalType": "uint256",
          "name": "",
          "type": "uint256"
        }
      ],
      "stateMutability": "view",
      "type": "function"
    },
    {
      "inputs": [
        {
          "internalType": "address",
          "name": "_studentAddress",
          "type": "address"
        }
      ],
      "name": "getDocumentDetails",
      "outputs": [
        {
          "internalType": "string[]",
          "name": "",
          "type": "string[]"
        },
        {
          "internalType": "string[]",
          "name": "",
          "type": "string[]"
        }
      ],
      "stateMutability": "view",
      "type": "function"
    }
  ],
  "bytecode": "0x608060405234801561000f575f80fd5b506116558061001d5f395ff3fe608060405234801561000f575f80fd5b5060043610610055575f3560e01c806310468c2f146100595780633b993fe014610075578063548de9f7146100a5578063a6c807a9146100d6578063f602b80f14610108575b5f80fd5b610073600480360381019061006e9190610c79565b610124565b005b61008f600480360381019061008a9190610cd3565b61032e565b60405161009c9190610d16565b60405180910390f35b6100bf60048036038101906100ba9190610cd3565b610379565b6040516100cd929190610e64565b60405180910390f35b6100f060048036038101906100eb9190610cd3565b6106d0565b6040516100ff93929190610ef0565b60405180910390f35b610122600480360381019061011d9190610f2c565b6107b9565b005b5f73ffffffffffffffffffffffffffffffffffffffff165f808373ffffffffffffffffffffffffffffffffffffffff1673ffffffffffffffffffffffffffffffffffffffff1681526020019081526020015f206001015f9054906101000a900473ffffffffffffffffffffffffffffffffffffffff1673ffffffffffffffffffffffffffffffffffffffff16146101f0576040517f08c379a00000000000000000000000000000000000000000000000000000000081526004016101e790610ffe565b60405180910390fd5b5f805f8373ffffffffffffffffffffffffffffffffffffffff1673ffffffffffffffffffffffffffffffffffffffff1681526020019081526020015f20905082815f01908161023f9190611216565b5081816001015f6101000a81548173ffffffffffffffffffffffffffffffffffffffff021916908373ffffffffffffffffffffffffffffffffffffffff16021790555033816002015f6101000a81548173ffffffffffffffffffffffffffffffffffffffff021916908373ffffffffffffffffffffffffffffffffffffffff1602179055503373ffffffffffffffffffffffffffffffffffffffff168273ffffffffffffffffffffffffffffffffffffffff167fc902157d0d935238ddf40055643d8152eef5670ddb5272f02869e8dbeaf5dcd68560405161032191906112e5565b60405180910390a3505050565b5f805f8373ffffffffffffffffffffffffffffffffffffffff1673ffffffffffffffffffffffffffffffffffffffff1681526020019081526020015f20600301805490509050919050565b606080828073ffffffffffffffffffffffffffffffffffffffff163373ffffffffffffffffffffffffffffffffffffffff16146103eb576040517f08c379a00000000000000000000000000000000000000000000000000000000081526004016103e290611375565b60405180910390fd5b5f805f8673ffffffffffffffffffffffffffffffffffffffff1673ffffffffffffffffffffffffffffffffffffffff1681526020019081526020015f206003018054905090505f8167ffffffffffffffff81111561044c5761044b610afb565b5b60405190808252806020026020018201604052801561047f57816020015b606081526020019060019003908161046a5790505b5090505f8267ffffffffffffffff81111561049d5761049c610afb565b5b6040519080825280602002602001820160405280156104d057816020015b60608152602001906001900390816104bb5790505b5090505f5b838110156106c0575f805f8a73ffffffffffffffffffffffffffffffffffffffff1673ffffffffffffffffffffffffffffffffffffffff1681526020019081526020015f20600301828154811061052f5761052e611393565b5b905f5260205f2090600202016040518060400160405290815f8201805461055590611049565b80601f016020809104026020016040519081016040528092919081815260200182805461058190611049565b80156105cc5780601f106105a3576101008083540402835291602001916105cc565b820191905f5260205f20905b8154815290600101906020018083116105af57829003601f168201915b505050505081526020016001820180546105e590611049565b80601f016020809104026020016040519081016040528092919081815260200182805461061190611049565b801561065c5780601f106106335761010080835404028352916020019161065c565b820191905f5260205f20905b81548152906001019060200180831161063f57829003601f168201915b5050505050815250509050805f015184838151811061067e5761067d611393565b5b602002602001018190525080602001518383815181106106a1576106a0611393565b5b60200260200101819052505080806106b8906113ed565b9150506104d5565b5081819550955050505050915091565b5f602052805f5260405f205f91509050805f0180546106ee90611049565b80601f016020809104026020016040519081016040528092919081815260200182805461071a90611049565b80156107655780601f1061073c57610100808354040283529160200191610765565b820191905f5260205f20905b81548152906001019060200180831161074857829003601f168201915b505050505090806001015f9054906101000a900473ffffffffffffffffffffffffffffffffffffffff1690806002015f9054906101000a900473ffffffffffffffffffffffffffffffffffffffff16905083565b5f73ffffffffffffffffffffffffffffffffffffffff165f808573ffffffffffffffffffffffffffffffffffffffff1673ffffffffffffffffffffffffffffffffffffffff1681526020019081526020015f206001015f9054906101000a900473ffffffffffffffffffffffffffffffffffffffff1673ffffffffffffffffffffffffffffffffffffffff1603610885576040517f08c379a000000000000000000000000000000000000000000000000000000000815260040161087c9061147e565b60405180910390fd5b5f5b5f808573ffffffffffffffffffffffffffffffffffffffff1673ffffffffffffffffffffffffffffffffffffffff1681526020019081526020015f20600301805490508110156109d157816040516020016108e291906114d6565b604051602081830303815290604052805190602001205f808673ffffffffffffffffffffffffffffffffffffffff1673ffffffffffffffffffffffffffffffffffffffff1681526020019081526020015f20600301828154811061094957610948611393565b5b905f5260205f209060020201600101604051602001610968919061156c565b60405160208183030381529060405280519060200120036109be576040517f08c379a00000000000000000000000000000000000000000000000000000000081526004016109b5906115cc565b60405180910390fd5b80806109c9906113ed565b915050610887565b505f60405180604001604052808481526020018381525090505f808573ffffffffffffffffffffffffffffffffffffffff1673ffffffffffffffffffffffffffffffffffffffff1681526020019081526020015f2060030181908060018154018082558091505060019003905f5260205f2090600202015f909190919091505f820151815f019081610a639190611216565b506020820151816001019081610a799190611216565b5050508373ffffffffffffffffffffffffffffffffffffffff167f07645f127bfac4daf3357acb380f90f0224d68150d39744ebb2fdf1e58a7206f8484604051610ac49291906115ea565b60405180910390a250505050565b5f604051905090565b5f80fd5b5f80fd5b5f80fd5b5f80fd5b5f601f19601f8301169050919050565b7f4e487b71000000000000000000000000000000000000000000000000000000005f52604160045260245ffd5b610b3182610aeb565b810181811067ffffffffffffffff82111715610b5057610b4f610afb565b5b80604052505050565b5f610b62610ad2565b9050610b6e8282610b28565b919050565b5f67ffffffffffffffff821115610b8d57610b8c610afb565b5b610b9682610aeb565b9050602081019050919050565b828183375f83830152505050565b5f610bc3610bbe84610b73565b610b59565b905082815260208101848484011115610bdf57610bde610ae7565b5b610bea848285610ba3565b509392505050565b5f82601f830112610c0657610c05610ae3565b5b8135610c16848260208601610bb1565b91505092915050565b5f73ffffffffffffffffffffffffffffffffffffffff82169050919050565b5f610c4882610c1f565b9050919050565b610c5881610c3e565b8114610c62575f80fd5b50565b5f81359050610c7381610c4f565b92915050565b5f8060408385031215610c8f57610c8e610adb565b5b5f83013567ffffffffffffffff811115610cac57610cab610adf565b5b610cb885828601610bf2565b9250506020610cc985828601610c65565b9150509250929050565b5f60208284031215610ce857610ce7610adb565b5b5f610cf584828501610c65565b91505092915050565b5f819050919050565b610d1081610cfe565b82525050565b5f602082019050610d295f830184610d07565b92915050565b5f81519050919050565b5f82825260208201905092915050565b5f819050602082019050919050565b5f81519050919050565b5f82825260208201905092915050565b5f5b83811015610d8f578082015181840152602081019050610d74565b5f8484015250505050565b5f610da482610d58565b610dae8185610d62565b9350610dbe818560208601610d72565b610dc781610aeb565b840191505092915050565b5f610ddd8383610d9a565b905092915050565b5f602082019050919050565b5f610dfb82610d2f565b610e058185610d39565b935083602082028501610e1785610d49565b805f5b85811015610e525784840389528151610e338582610dd2565b9450610e3e83610de5565b925060208a01995050600181019050610e1a565b50829750879550505050505092915050565b5f6040820190508181035f830152610e7c8185610df1565b90508181036020830152610e908184610df1565b90509392505050565b5f82825260208201905092915050565b5f610eb382610d58565b610ebd8185610e99565b9350610ecd818560208601610d72565b610ed681610aeb565b840191505092915050565b610eea81610c3e565b82525050565b5f6060820190508181035f830152610f088186610ea9565b9050610f176020830185610ee1565b610f246040830184610ee1565b949350505050565b5f805f60608486031215610f4357610f42610adb565b5b5f610f5086828701610c65565b935050602084013567ffffffffffffffff811115610f7157610f70610adf565b5b610f7d86828701610bf2565b925050604084013567ffffffffffffffff811115610f9e57610f9d610adf565b5b610faa86828701610bf2565b9150509250925092565b7f53747564656e7420616c726561647920657869737473000000000000000000005f82015250565b5f610fe8601683610e99565b9150610ff382610fb4565b602082019050919050565b5f6020820190508181035f83015261101581610fdc565b9050919050565b7f4e487b71000000000000000000000000000000000000000000000000000000005f52602260045260245ffd5b5f600282049050600182168061106057607f821691505b6020821081036110735761107261101c565b5b50919050565b5f819050815f5260205f209050919050565b5f6020601f8301049050919050565b5f82821b905092915050565b5f600883026110d57fffffffffffffffffffffffffffffffffffffffffffffffffffffffffffffffff8261109a565b6110df868361109a565b95508019841693508086168417925050509392505050565b5f819050919050565b5f61111a61111561111084610cfe565b6110f7565b610cfe565b9050919050565b5f819050919050565b61113383611100565b61114761113f82611121565b8484546110a6565b825550505050565b5f90565b61115b61114f565b61116681848461112a565b505050565b5b818110156111895761117e5f82611153565b60018101905061116c565b5050565b601f8211156111ce5761119f81611079565b6111a88461108b565b810160208510156111b7578190505b6111cb6111c38561108b565b83018261116b565b50505b505050565b5f82821c905092915050565b5f6111ee5f19846008026111d3565b1980831691505092915050565b5f61120683836111df565b9150826002028217905092915050565b61121f82610d58565b67ffffffffffffffff81111561123857611237610afb565b5b6112428254611049565b61124d82828561118d565b5f60209050601f83116001811461127e575f841561126c578287015190505b61127685826111fb565b8655506112dd565b601f19841661128c86611079565b5f5b828110156112b35784890151825560018201915060208501945060208101905061128e565b868310156112d057848901516112cc601f8916826111df565b8355505b6001600288020188555050505b505050505050565b5f6020820190508181035f8301526112fd8184610ea9565b905092915050565b7f4f6e6c79207468652073747564656e742063616e2061636365737320746865695f8201527f72206f776e20646f63756d656e74730000000000000000000000000000000000602082015250565b5f61135f602f83610e99565b915061136a82611305565b604082019050919050565b5f6020820190508181035f83015261138c81611353565b9050919050565b7f4e487b71000000000000000000000000000000000000000000000000000000005f52603260045260245ffd5b7f4e487b71000000000000000000000000000000000000000000000000000000005f52601160045260245ffd5b5f6113f782610cfe565b91507fffffffffffffffffffffffffffffffffffffffffffffffffffffffffffffffff8203611429576114286113c0565b5b600182019050919050565b7f53747564656e7420646f6573206e6f74206578697374000000000000000000005f82015250565b5f611468601683610e99565b915061147382611434565b602082019050919050565b5f6020820190508181035f8301526114958161145c565b9050919050565b5f81905092915050565b5f6114b082610d58565b6114ba818561149c565b93506114ca818560208601610d72565b80840191505092915050565b5f6114e182846114a6565b915081905092915050565b5f81546114f881611049565b611502818661149c565b9450600182165f811461151c576001811461153157611563565b60ff1983168652811515820286019350611563565b61153a85611079565b5f5b8381101561155b5781548189015260018201915060208101905061153c565b838801955050505b50505092915050565b5f61157782846114ec565b915081905092915050565b7f446f63756d656e7420616c7265616479206578697374730000000000000000005f82015250565b5f6115b6601783610e99565b91506115c182611582565b602082019050919050565b5f6020820190508181035f8301526115e3816115aa565b9050919050565b5f6040820190508181035f8301526116028185610ea9565b905081810360208301526116168184610ea9565b9050939250505056fea264697066735822122047f4204907a41c0af02b236c0d388fd04a2747f7a278ec377d88858b0bef976664736f6c63430008150033",
  "immutableReferences": {},
  "source": "// SPDX-License-Identifier: MIT\r\npragma solidity ^0.8.0;\r\n\r\ncontract BGV {\r\n    // Struct to represent a document\r\n    struct Document {\r\n        string name;\r\n        string hashValue;\r\n    }\r\n\r\n    // Struct to represent a student\r\n    struct Student {\r\n        string name;\r\n        address studentAddress;\r\n        address addedBy; // Address of the person who added the student\r\n        Document[] documents; // Array of documents associated with the student\r\n    }\r\n\r\n    // Mapping to store students by their Ethereum address\r\n    mapping(address => Student) public students;\r\n\r\n    // Event to emit when a new student is added\r\n    event StudentAdded(address indexed studentAddress, string name, address indexed addedBy);\r\n\r\n    // Event to emit when a new document is added to a student\r\n    event DocumentAdded(address indexed studentAddress, string documentName, string hashValue);\r\n\r\n    // Modifier to ensure only the student can access their document details\r\n    modifier onlyStudent(address _studentAddress) {\r\n        require(msg.sender == _studentAddress, \"Only the student can access their own documents\");\r\n        _;\r\n    }\r\n\r\n    // Function to add a new student\r\n    function addStudent(string memory _name, address _studentAddress) public {\r\n        // Ensure the student does not already exist\r\n        require(students[_studentAddress].studentAddress == address(0), \"Student already exists\");\r\n\r\n        // Create a new student\r\n        Student storage newStudent = students[_studentAddress];\r\n        newStudent.name = _name;\r\n        newStudent.studentAddress = _studentAddress;\r\n        newStudent.addedBy = msg.sender;\r\n\r\n        // Emit an event to notify that a new student has been added\r\n        emit StudentAdded(_studentAddress, _name, msg.sender);\r\n    }\r\n\r\n    // Function to add a document to an existing student\r\n   // Function to add a document to an existing student\r\n    function addDocumentToStudent(address _studentAddress, string memory _documentName, string memory _hashValue) public {\r\n         // Ensure the student exists\r\n        require(students[_studentAddress].studentAddress != address(0), \"Student does not exist\");\r\n\r\n        // Check if a document with the same hash value already exists\r\n        for (uint i = 0; i < students[_studentAddress].documents.length; i++) {\r\n            if (keccak256(abi.encodePacked(students[_studentAddress].documents[i].hashValue)) == keccak256(abi.encodePacked(_hashValue))) {\r\n                revert(\"Document already exists\");\r\n            }\r\n        }      \r\n\r\n        // Create a new document\r\n        Document memory newDocument = Document({\r\n            name: _documentName,\r\n            hashValue: _hashValue\r\n        });\r\n\r\n        // Add the document to the student's array\r\n        students[_studentAddress].documents.push(newDocument);\r\n\r\n        // Emit an event to notify that a new document has been added to the student\r\n        emit DocumentAdded(_studentAddress, _documentName, _hashValue);\r\n    }\r\n\r\n\r\n    // Function to get the count of documents for a student\r\n    function getDocumentCount(address _studentAddress) public view returns (uint) {\r\n        return students[_studentAddress].documents.length;\r\n    }\r\n\r\n     // Function to get the details of all documents for a student\r\n    function getDocumentDetails(address _studentAddress) public view onlyStudent(_studentAddress) returns (string[] memory, string[] memory) {\r\n        uint documentCount = students[_studentAddress].documents.length;\r\n\r\n        string[] memory documentNames = new string[](documentCount);\r\n        string[] memory hashValues = new string[](documentCount);\r\n\r\n        for (uint i = 0; i < documentCount; i++) {\r\n            Document memory doc = students[_studentAddress].documents[i];\r\n            documentNames[i] = doc.name;\r\n            hashValues[i] = doc.hashValue;\r\n        }\r\n\r\n        return (documentNames, hashValues);\r\n    }\r\n\r\n}\r\n",
  "sourcePath": "C:\\Users\\91988\\Documents\\BGV\\contracts\\BGV.sol",
  "compiler": {
    "name": "solc",
    "version": "0.8.21+commit.d9974bed.Emscripten.clang"
  },
  "schemaVersion": "3.4.16",
  "updatedAt": "2024-02-10T05:47:08.133Z",
  "devdoc": {
    "kind": "dev",
    "methods": {},
    "version": 1
  },
  "userdoc": {
    "kind": "user",
    "methods": {},
    "version": 1
  }
}